{
  "contractName": "PathToken",
  "abi": [
    {
      "inputs": [
        {
          "internalType": "address",
          "name": "owner_",
          "type": "address"
        }
      ],
      "stateMutability": "nonpayable",
      "type": "constructor"
    },
    {
      "anonymous": false,
      "inputs": [
        {
          "indexed": true,
          "internalType": "address",
          "name": "owner",
          "type": "address"
        },
        {
          "indexed": true,
          "internalType": "address",
          "name": "spender",
          "type": "address"
        },
        {
          "indexed": false,
          "internalType": "uint256",
          "name": "value",
          "type": "uint256"
        }
      ],
      "name": "Approval",
      "type": "event"
    },
    {
      "anonymous": false,
      "inputs": [
        {
          "indexed": true,
          "internalType": "address",
          "name": "previousOwner",
          "type": "address"
        },
        {
          "indexed": true,
          "internalType": "address",
          "name": "newOwner",
          "type": "address"
        }
      ],
      "name": "OwnershipTransferred",
      "type": "event"
    },
    {
      "anonymous": false,
      "inputs": [
        {
          "indexed": true,
          "internalType": "address",
          "name": "from",
          "type": "address"
        },
        {
          "indexed": true,
          "internalType": "address",
          "name": "to",
          "type": "address"
        },
        {
          "indexed": false,
          "internalType": "uint256",
          "name": "value",
          "type": "uint256"
        }
      ],
      "name": "Transfer",
      "type": "event"
    },
    {
      "inputs": [],
      "name": "TOTAL_SUPPLY",
      "outputs": [
        {
          "internalType": "uint256",
          "name": "",
          "type": "uint256"
        }
      ],
      "stateMutability": "view",
      "type": "function"
    },
    {
      "inputs": [
        {
          "internalType": "address",
          "name": "owner",
          "type": "address"
        },
        {
          "internalType": "address",
          "name": "spender",
          "type": "address"
        }
      ],
      "name": "allowance",
      "outputs": [
        {
          "internalType": "uint256",
          "name": "",
          "type": "uint256"
        }
      ],
      "stateMutability": "view",
      "type": "function"
    },
    {
      "inputs": [
        {
          "internalType": "address",
          "name": "spender",
          "type": "address"
        },
        {
          "internalType": "uint256",
          "name": "amount",
          "type": "uint256"
        }
      ],
      "name": "approve",
      "outputs": [
        {
          "internalType": "bool",
          "name": "",
          "type": "bool"
        }
      ],
      "stateMutability": "nonpayable",
      "type": "function"
    },
    {
      "inputs": [
        {
          "internalType": "address",
          "name": "account",
          "type": "address"
        }
      ],
      "name": "balanceOf",
      "outputs": [
        {
          "internalType": "uint256",
          "name": "",
          "type": "uint256"
        }
      ],
      "stateMutability": "view",
      "type": "function"
    },
    {
      "inputs": [],
      "name": "decimals",
      "outputs": [
        {
          "internalType": "uint8",
          "name": "",
          "type": "uint8"
        }
      ],
      "stateMutability": "view",
      "type": "function"
    },
    {
      "inputs": [
        {
          "internalType": "address",
          "name": "spender",
          "type": "address"
        },
        {
          "internalType": "uint256",
          "name": "subtractedValue",
          "type": "uint256"
        }
      ],
      "name": "decreaseAllowance",
      "outputs": [
        {
          "internalType": "bool",
          "name": "",
          "type": "bool"
        }
      ],
      "stateMutability": "nonpayable",
      "type": "function"
    },
    {
      "inputs": [
        {
          "internalType": "address",
          "name": "spender",
          "type": "address"
        },
        {
          "internalType": "uint256",
          "name": "addedValue",
          "type": "uint256"
        }
      ],
      "name": "increaseAllowance",
      "outputs": [
        {
          "internalType": "bool",
          "name": "",
          "type": "bool"
        }
      ],
      "stateMutability": "nonpayable",
      "type": "function"
    },
    {
      "inputs": [],
      "name": "name",
      "outputs": [
        {
          "internalType": "string",
          "name": "",
          "type": "string"
        }
      ],
      "stateMutability": "view",
      "type": "function"
    },
    {
      "inputs": [],
      "name": "owner",
      "outputs": [
        {
          "internalType": "address",
          "name": "",
          "type": "address"
        }
      ],
      "stateMutability": "view",
      "type": "function"
    },
    {
      "inputs": [],
      "name": "renounceOwnership",
      "outputs": [],
      "stateMutability": "nonpayable",
      "type": "function"
    },
    {
      "inputs": [],
      "name": "symbol",
      "outputs": [
        {
          "internalType": "string",
          "name": "",
          "type": "string"
        }
      ],
      "stateMutability": "view",
      "type": "function"
    },
    {
      "inputs": [],
      "name": "totalSupply",
      "outputs": [
        {
          "internalType": "uint256",
          "name": "",
          "type": "uint256"
        }
      ],
      "stateMutability": "view",
      "type": "function"
    },
    {
      "inputs": [
        {
          "internalType": "address",
          "name": "recipient",
          "type": "address"
        },
        {
          "internalType": "uint256",
          "name": "amount",
          "type": "uint256"
        }
      ],
      "name": "transfer",
      "outputs": [
        {
          "internalType": "bool",
          "name": "",
          "type": "bool"
        }
      ],
      "stateMutability": "nonpayable",
      "type": "function"
    },
    {
      "inputs": [
        {
          "internalType": "address",
          "name": "sender",
          "type": "address"
        },
        {
          "internalType": "address",
          "name": "recipient",
          "type": "address"
        },
        {
          "internalType": "uint256",
          "name": "amount",
          "type": "uint256"
        }
      ],
      "name": "transferFrom",
      "outputs": [
        {
          "internalType": "bool",
          "name": "",
          "type": "bool"
        }
      ],
      "stateMutability": "nonpayable",
      "type": "function"
    },
    {
      "inputs": [
        {
          "internalType": "address",
          "name": "newOwner",
          "type": "address"
        }
      ],
      "name": "transferOwnership",
      "outputs": [],
      "stateMutability": "nonpayable",
      "type": "function"
    }
  ],
  "bytecode": "0x60806040526b033b2e3c9fd0803ce80000006006553480156200002157600080fd5b506040516200119d3803806200119d833981016040819052620000449162000395565b604080518082018252600a8152692830ba34102a37b5b2b760b11b6020808301918252835180850190945260048452630a082a8960e31b9084015281519192916200009291600391620002ef565b508051620000a8906004906020840190620002ef565b5050506000620000bd6200015260201b60201c565b600580546001600160a01b0319166001600160a01b038316908117909155604051919250906000906000805160206200117d833981519152908290a3506001600160a01b0381166200012c5760405162461bcd60e51b81526004016200012390620003c5565b60405180910390fd5b620001378162000156565b6200014b816006546200021060201b60201c565b5062000519565b3390565b6200016062000152565b6001600160a01b031662000173620002db565b6001600160a01b0316146200019c5760405162461bcd60e51b8152600401620001239062000442565b6001600160a01b038116620001c55760405162461bcd60e51b81526004016200012390620003fc565b6005546040516001600160a01b038084169216906000805160206200117d83398151915290600090a3600580546001600160a01b0319166001600160a01b0392909216919091179055565b6001600160a01b038216620002395760405162461bcd60e51b8152600401620001239062000477565b6200024760008383620002ea565b80600260008282546200025b9190620004b7565b90915550506001600160a01b038216600090815260208190526040812080548392906200028a908490620004b7565b90915550506040516001600160a01b038316906000907fddf252ad1be2c89b69c2b068fc378daa952ba7f163c4a11628f55a4df523b3ef90620002cf908590620004ae565b60405180910390a35050565b6005546001600160a01b031690565b505050565b828054620002fd90620004dc565b90600052602060002090601f0160209004810192826200032157600085556200036c565b82601f106200033c57805160ff19168380011785556200036c565b828001600101855582156200036c579182015b828111156200036c5782518255916020019190600101906200034f565b506200037a9291506200037e565b5090565b5b808211156200037a57600081556001016200037f565b600060208284031215620003a7578081fd5b81516001600160a01b0381168114620003be578182fd5b9392505050565b6020808252601b908201527f6f776e65722063616e206e6f74206265203020616464726573732e0000000000604082015260600190565b60208082526026908201527f4f776e61626c653a206e6577206f776e657220697320746865207a65726f206160408201526564647265737360d01b606082015260800190565b6020808252818101527f4f776e61626c653a2063616c6c6572206973206e6f7420746865206f776e6572604082015260600190565b6020808252601f908201527f45524332303a206d696e7420746f20746865207a65726f206164647265737300604082015260600190565b90815260200190565b60008219821115620004d757634e487b7160e01b81526011600452602481fd5b500190565b600281046001821680620004f157607f821691505b602082108114156200051357634e487b7160e01b600052602260045260246000fd5b50919050565b610c5480620005296000396000f3fe608060405234801561001057600080fd5b50600436106100f55760003560e01c8063715018a611610097578063a457c2d711610066578063a457c2d7146101ca578063a9059cbb146101dd578063dd62ed3e146101f0578063f2fde38b14610203576100f5565b8063715018a61461019b5780638da5cb5b146101a5578063902d55a5146101ba57806395d89b41146101c2576100f5565b806323b872dd116100d357806323b872dd1461014d578063313ce56714610160578063395093511461017557806370a0823114610188576100f5565b806306fdde03146100fa578063095ea7b31461011857806318160ddd14610138575b600080fd5b610102610216565b60405161010f91906108d8565b60405180910390f35b61012b610126366004610890565b6102a8565b60405161010f91906108cd565b6101406102c5565b60405161010f9190610b87565b61012b61015b366004610855565b6102cb565b61016861036b565b60405161010f9190610b90565b61012b610183366004610890565b610370565b610140610196366004610802565b6103bf565b6101a36103de565b005b6101ad610467565b60405161010f91906108b9565b610140610476565b61010261047c565b61012b6101d8366004610890565b61048b565b61012b6101eb366004610890565b610506565b6101406101fe366004610823565b61051a565b6101a3610211366004610802565b610545565b60606003805461022590610bcd565b80601f016020809104026020016040519081016040528092919081815260200182805461025190610bcd565b801561029e5780601f106102735761010080835404028352916020019161029e565b820191906000526020600020905b81548152906001019060200180831161028157829003601f168201915b5050505050905090565b60006102bc6102b5610606565b848461060a565b50600192915050565b60025490565b60006102d88484846106be565b6001600160a01b0384166000908152600160205260408120816102f9610606565b6001600160a01b03166001600160a01b03168152602001908152602001600020549050828110156103455760405162461bcd60e51b815260040161033c90610a3c565b60405180910390fd5b61036085610351610606565b61035b8685610bb6565b61060a565b506001949350505050565b601290565b60006102bc61037d610606565b84846001600061038b610606565b6001600160a01b03908116825260208083019390935260409182016000908120918b168152925290205461035b9190610b9e565b6001600160a01b0381166000908152602081905260409020545b919050565b6103e6610606565b6001600160a01b03166103f7610467565b6001600160a01b03161461041d5760405162461bcd60e51b815260040161033c90610a84565b6005546040516000916001600160a01b0316907f8be0079c531659141344cd1fd0a4f28419497f9722a3daafe3b4186f6b6457e0908390a3600580546001600160a01b0319169055565b6005546001600160a01b031690565b60065481565b60606004805461022590610bcd565b6000806001600061049a610606565b6001600160a01b03908116825260208083019390935260409182016000908120918816815292529020549050828110156104e65760405162461bcd60e51b815260040161033c90610b42565b6104fc6104f1610606565b8561035b8685610bb6565b5060019392505050565b60006102bc610513610606565b84846106be565b6001600160a01b03918216600090815260016020908152604080832093909416825291909152205490565b61054d610606565b6001600160a01b031661055e610467565b6001600160a01b0316146105845760405162461bcd60e51b815260040161033c90610a84565b6001600160a01b0381166105aa5760405162461bcd60e51b815260040161033c9061096e565b6005546040516001600160a01b038084169216907f8be0079c531659141344cd1fd0a4f28419497f9722a3daafe3b4186f6b6457e090600090a3600580546001600160a01b0319166001600160a01b0392909216919091179055565b3390565b6001600160a01b0383166106305760405162461bcd60e51b815260040161033c90610afe565b6001600160a01b0382166106565760405162461bcd60e51b815260040161033c906109b4565b6001600160a01b0380841660008181526001602090815260408083209487168084529490915290819020849055517f8c5be1e5ebec7d5bd14f71427d1e84f3dd0314c0f7b2291e5b200ac8c7c3b925906106b1908590610b87565b60405180910390a3505050565b6001600160a01b0383166106e45760405162461bcd60e51b815260040161033c90610ab9565b6001600160a01b03821661070a5760405162461bcd60e51b815260040161033c9061092b565b6107158383836107e6565b6001600160a01b0383166000908152602081905260409020548181101561074e5760405162461bcd60e51b815260040161033c906109f6565b6107588282610bb6565b6001600160a01b03808616600090815260208190526040808220939093559085168152908120805484929061078e908490610b9e565b92505081905550826001600160a01b0316846001600160a01b03167fddf252ad1be2c89b69c2b068fc378daa952ba7f163c4a11628f55a4df523b3ef846040516107d89190610b87565b60405180910390a350505050565b505050565b80356001600160a01b03811681146103d957600080fd5b600060208284031215610813578081fd5b61081c826107eb565b9392505050565b60008060408385031215610835578081fd5b61083e836107eb565b915061084c602084016107eb565b90509250929050565b600080600060608486031215610869578081fd5b610872846107eb565b9250610880602085016107eb565b9150604084013590509250925092565b600080604083850312156108a2578182fd5b6108ab836107eb565b946020939093013593505050565b6001600160a01b0391909116815260200190565b901515815260200190565b6000602080835283518082850152825b81811015610904578581018301518582016040015282016108e8565b818111156109155783604083870101525b50601f01601f1916929092016040019392505050565b60208082526023908201527f45524332303a207472616e7366657220746f20746865207a65726f206164647260408201526265737360e81b606082015260800190565b60208082526026908201527f4f776e61626c653a206e6577206f776e657220697320746865207a65726f206160408201526564647265737360d01b606082015260800190565b60208082526022908201527f45524332303a20617070726f766520746f20746865207a65726f206164647265604082015261737360f01b606082015260800190565b60208082526026908201527f45524332303a207472616e7366657220616d6f756e7420657863656564732062604082015265616c616e636560d01b606082015260800190565b60208082526028908201527f45524332303a207472616e7366657220616d6f756e74206578636565647320616040820152676c6c6f77616e636560c01b606082015260800190565b6020808252818101527f4f776e61626c653a2063616c6c6572206973206e6f7420746865206f776e6572604082015260600190565b60208082526025908201527f45524332303a207472616e736665722066726f6d20746865207a65726f206164604082015264647265737360d81b606082015260800190565b60208082526024908201527f45524332303a20617070726f76652066726f6d20746865207a65726f206164646040820152637265737360e01b606082015260800190565b60208082526025908201527f45524332303a2064656372656173656420616c6c6f77616e63652062656c6f77604082015264207a65726f60d81b606082015260800190565b90815260200190565b60ff91909116815260200190565b60008219821115610bb157610bb1610c08565b500190565b600082821015610bc857610bc8610c08565b500390565b600281046001821680610be157607f821691505b60208210811415610c0257634e487b7160e01b600052602260045260246000fd5b50919050565b634e487b7160e01b600052601160045260246000fdfea26469706673582212203786d9266eabf6aedd7831b59c98115ab69e09467f950d2c155343cb3fcdc06a64736f6c634300080000338be0079c531659141344cd1fd0a4f28419497f9722a3daafe3b4186f6b6457e0",
  "immutableReferences": {},
  "source": "// SPDX-License-Identifier: MIT\n\npragma solidity ^0.8.0;\n\nimport \"@openzeppelin/contracts/access/Ownable.sol\";\nimport \"@openzeppelin/contracts/token/ERC20/ERC20.sol\";\n\n/// @title Path token with Governance.\ncontract PathToken is ERC20, Ownable {\n    uint256 public TOTAL_SUPPLY = 1_000_000_000 ether;\n\n    constructor(address owner_) ERC20(\"Path Token\", \"PATH\") {\n        require(owner_ != address(0), \"owner can not be 0 address.\");\n        transferOwnership(owner_);\n        _mint(owner_, TOTAL_SUPPLY);\n    }\n}\n",
  "sourcePath": "/Users/zhangleping/github.com/0xa8c81519/path/contracts/PathToken.sol",
  "compiler": {
    "name": "solc",
    "version": "0.8.0+commit.c7dfd78e.Emscripten.clang"
  },
  "schemaVersion": "3.4.1",
  "updatedAt": "2021-06-28T02:08:00.432Z",
  "devdoc": {
    "kind": "dev",
    "methods": {
      "allowance(address,address)": {
        "details": "See {IERC20-allowance}."
      },
      "approve(address,uint256)": {
        "details": "See {IERC20-approve}. Requirements: - `spender` cannot be the zero address."
      },
      "balanceOf(address)": {
        "details": "See {IERC20-balanceOf}."
      },
      "decimals()": {
        "details": "Returns the number of decimals used to get its user representation. For example, if `decimals` equals `2`, a balance of `505` tokens should be displayed to a user as `5,05` (`505 / 10 ** 2`). Tokens usually opt for a value of 18, imitating the relationship between Ether and Wei. This is the value {ERC20} uses, unless this function is overridden; NOTE: This information is only used for _display_ purposes: it in no way affects any of the arithmetic of the contract, including {IERC20-balanceOf} and {IERC20-transfer}."
      },
      "decreaseAllowance(address,uint256)": {
        "details": "Atomically decreases the allowance granted to `spender` by the caller. This is an alternative to {approve} that can be used as a mitigation for problems described in {IERC20-approve}. Emits an {Approval} event indicating the updated allowance. Requirements: - `spender` cannot be the zero address. - `spender` must have allowance for the caller of at least `subtractedValue`."
      },
      "increaseAllowance(address,uint256)": {
        "details": "Atomically increases the allowance granted to `spender` by the caller. This is an alternative to {approve} that can be used as a mitigation for problems described in {IERC20-approve}. Emits an {Approval} event indicating the updated allowance. Requirements: - `spender` cannot be the zero address."
      },
      "name()": {
        "details": "Returns the name of the token."
      },
      "owner()": {
        "details": "Returns the address of the current owner."
      },
      "renounceOwnership()": {
        "details": "Leaves the contract without owner. It will not be possible to call `onlyOwner` functions anymore. Can only be called by the current owner. NOTE: Renouncing ownership will leave the contract without an owner, thereby removing any functionality that is only available to the owner."
      },
      "symbol()": {
        "details": "Returns the symbol of the token, usually a shorter version of the name."
      },
      "totalSupply()": {
        "details": "See {IERC20-totalSupply}."
      },
      "transfer(address,uint256)": {
        "details": "See {IERC20-transfer}. Requirements: - `recipient` cannot be the zero address. - the caller must have a balance of at least `amount`."
      },
      "transferFrom(address,address,uint256)": {
        "details": "See {IERC20-transferFrom}. Emits an {Approval} event indicating the updated allowance. This is not required by the EIP. See the note at the beginning of {ERC20}. Requirements: - `sender` and `recipient` cannot be the zero address. - `sender` must have a balance of at least `amount`. - the caller must have allowance for ``sender``'s tokens of at least `amount`."
      },
      "transferOwnership(address)": {
        "details": "Transfers ownership of the contract to a new account (`newOwner`). Can only be called by the current owner."
      }
    },
    "title": "Path token with Governance.",
    "version": 1
  },
  "userdoc": {
    "kind": "user",
    "methods": {},
    "version": 1
  }
}