{
  "contractName": "TreasuryVester",
  "abi": [
    {
      "inputs": [
        {
          "internalType": "address",
          "name": "path_",
          "type": "address"
        },
        {
          "internalType": "address",
          "name": "recipient_",
          "type": "address"
        },
        {
          "internalType": "uint256",
          "name": "vestingAmount_",
          "type": "uint256"
        },
        {
          "internalType": "uint256",
          "name": "vestingBegin_",
          "type": "uint256"
        },
        {
          "internalType": "uint256",
          "name": "vestingCliff_",
          "type": "uint256"
        },
        {
          "internalType": "uint256",
          "name": "vestingEnd_",
          "type": "uint256"
        }
      ],
      "stateMutability": "nonpayable",
      "type": "constructor"
    },
    {
      "inputs": [],
      "name": "lastUpdate",
      "outputs": [
        {
          "internalType": "uint256",
          "name": "",
          "type": "uint256"
        }
      ],
      "stateMutability": "view",
      "type": "function"
    },
    {
      "inputs": [],
      "name": "path",
      "outputs": [
        {
          "internalType": "address",
          "name": "",
          "type": "address"
        }
      ],
      "stateMutability": "view",
      "type": "function"
    },
    {
      "inputs": [],
      "name": "recipient",
      "outputs": [
        {
          "internalType": "address",
          "name": "",
          "type": "address"
        }
      ],
      "stateMutability": "view",
      "type": "function"
    },
    {
      "inputs": [],
      "name": "vestingAmount",
      "outputs": [
        {
          "internalType": "uint256",
          "name": "",
          "type": "uint256"
        }
      ],
      "stateMutability": "view",
      "type": "function"
    },
    {
      "inputs": [],
      "name": "vestingBegin",
      "outputs": [
        {
          "internalType": "uint256",
          "name": "",
          "type": "uint256"
        }
      ],
      "stateMutability": "view",
      "type": "function"
    },
    {
      "inputs": [],
      "name": "vestingCliff",
      "outputs": [
        {
          "internalType": "uint256",
          "name": "",
          "type": "uint256"
        }
      ],
      "stateMutability": "view",
      "type": "function"
    },
    {
      "inputs": [],
      "name": "vestingEnd",
      "outputs": [
        {
          "internalType": "uint256",
          "name": "",
          "type": "uint256"
        }
      ],
      "stateMutability": "view",
      "type": "function"
    },
    {
      "inputs": [
        {
          "internalType": "address",
          "name": "recipient_",
          "type": "address"
        }
      ],
      "name": "setRecipient",
      "outputs": [],
      "stateMutability": "nonpayable",
      "type": "function"
    },
    {
      "inputs": [],
      "name": "claim",
      "outputs": [],
      "stateMutability": "nonpayable",
      "type": "function"
    }
  ],
  "bytecode": "0x608060405234801561001057600080fd5b5060405161084c38038061084c83398101604081905261002f916100ff565b428310156100585760405162461bcd60e51b815260040161004f90610156565b60405180910390fd5b828210156100785760405162461bcd60e51b815260040161004f906101b3565b8181116100975760405162461bcd60e51b815260040161004f90610202565b600080546001600160a01b039788166001600160a01b0319918216179091556001805496909716951694909417909455600291909155600381905560049290925560055560065561024f565b80516001600160a01b03811681146100fa57600080fd5b919050565b60008060008060008060c08789031215610117578182fd5b610120876100e3565b955061012e602088016100e3565b945060408701519350606087015192506080870151915060a087015190509295509295509295565b60208082526034908201527f54726561737572795665737465723a3a636f6e7374727563746f723a2076657360408201527f74696e6720626567696e20746f6f206561726c79000000000000000000000000606082015260800190565b6020808252602f908201527f54726561737572795665737465723a3a636f6e7374727563746f723a20636c6960408201526e666620697320746f6f206561726c7960881b606082015260800190565b6020808252602d908201527f54726561737572795665737465723a3a636f6e7374727563746f723a20656e6460408201526c20697320746f6f206561726c7960981b606082015260800190565b6105ee8061025e6000396000f3fe608060405234801561001057600080fd5b50600436106100925760003560e01c806366d003ac1161006657806366d003ac146100e757806384a1931f146100ef578063c0463711146100f7578063e29bc68b146100ff578063f3640e741461010757610092565b8062728f76146100975780633bbed4a0146100b55780633dc06356146100ca5780634e71d92d146100df575b600080fd5b61009f61010f565b6040516100ac9190610543565b60405180910390f35b6100c86100c33660046103ba565b610115565b005b6100d261016a565b6040516100ac9190610452565b6100c8610179565b6100d2610287565b61009f610296565b61009f61029c565b61009f6102a2565b61009f6102a8565b60025481565b6001546001600160a01b031633146101485760405162461bcd60e51b815260040161013f906104b6565b60405180910390fd5b600180546001600160a01b0319166001600160a01b0392909216919091179055565b6000546001600160a01b031681565b60045442101561019b5760405162461bcd60e51b815260040161013f90610500565b6000600554421061022d576000546040516370a0823160e01b81526001600160a01b03909116906370a08231906101d6903090600401610452565b60206040518083038186803b1580156101ee57600080fd5b505afa158015610202573d6000803e3d6000fd5b505050506040513d601f19601f820116820180604052508101906102269190610401565b9050610267565b610260600354600554610240919061058b565b61025a60065442610251919061058b565b600254906102ae565b906102c1565b4260065590505b600054600154610284916001600160a01b039081169116836102cd565b50565b6001546001600160a01b031681565b60055481565b60065481565b60035481565b60045481565b60006102ba828461056c565b9392505050565b60006102ba828461054c565b600080846001600160a01b031663a9059cbb85856040516024016102f2929190610466565b6040516020818303038152906040529060e01b6020820180516001600160e01b03838183161783525050505060405161032b9190610419565b6000604051808303816000865af19150503d8060008114610368576040519150601f19603f3d011682016040523d82523d6000602084013e61036d565b606091505b509150915081801561039757508051158061039757508080602001905181019061039791906103e1565b6103b35760405162461bcd60e51b815260040161013f9061047f565b5050505050565b6000602082840312156103cb578081fd5b81356001600160a01b03811681146102ba578182fd5b6000602082840312156103f2578081fd5b815180151581146102ba578182fd5b600060208284031215610412578081fd5b5051919050565b60008251815b81811015610439576020818601810151858301520161041f565b818111156104475782828501525b509190910192915050565b6001600160a01b0391909116815260200190565b6001600160a01b03929092168252602082015260400190565b6020808252601f908201527f5472616e7366657248656c7065723a205452414e534645525f4641494c454400604082015260600190565b6020808252602a908201527f54726561737572795665737465723a3a736574526563697069656e743a20756e604082015269185d5d1a1bdc9a5e995960b21b606082015260800190565b60208082526023908201527f54726561737572795665737465723a3a636c61696d3a206e6f742074696d65206040820152621e595d60ea1b606082015260800190565b90815260200190565b60008261056757634e487b7160e01b81526012600452602481fd5b500490565b6000816000190483118215151615610586576105866105a2565b500290565b60008282101561059d5761059d6105a2565b500390565b634e487b7160e01b600052601160045260246000fdfea2646970667358221220e322d3ea3f9bac899252e81308b82b7ed61df219d9082c1bf48500658659c56264736f6c63430008000033",
  "immutableReferences": {},
  "source": "// SPDX-License-Identifier: MIT\n\npragma solidity ^0.8.0;\n\nimport \"@openzeppelin/contracts/utils/math/SafeMath.sol\";\nimport \"@openzeppelin/contracts/token/ERC20/IERC20.sol\";\nimport \"./lib/TransferHelper.sol\";\n\ncontract TreasuryVester {\n    using SafeMath for uint256;\n\n    address public path;\n    address public recipient;\n\n    uint256 public vestingAmount;\n    uint256 public vestingBegin;\n    uint256 public vestingCliff;\n    uint256 public vestingEnd;\n\n    uint256 public lastUpdate;\n\n    constructor(\n        address path_,\n        address recipient_,\n        uint256 vestingAmount_,\n        uint256 vestingBegin_,\n        uint256 vestingCliff_,\n        uint256 vestingEnd_\n    ) {\n        require(\n            vestingBegin_ >= block.timestamp,\n            \"TreasuryVester::constructor: vesting begin too early\"\n        );\n        require(\n            vestingCliff_ >= vestingBegin_,\n            \"TreasuryVester::constructor: cliff is too early\"\n        );\n        require(\n            vestingEnd_ > vestingCliff_,\n            \"TreasuryVester::constructor: end is too early\"\n        );\n\n        path = path_;\n        recipient = recipient_;\n\n        vestingAmount = vestingAmount_;\n        vestingBegin = vestingBegin_;\n        vestingCliff = vestingCliff_;\n        vestingEnd = vestingEnd_;\n\n        lastUpdate = vestingBegin;\n    }\n\n    function setRecipient(address recipient_) public {\n        require(\n            msg.sender == recipient,\n            \"TreasuryVester::setRecipient: unauthorized\"\n        );\n        recipient = recipient_;\n    }\n\n    function claim() public {\n        require(\n            block.timestamp >= vestingCliff,\n            \"TreasuryVester::claim: not time yet\"\n        );\n        uint256 amount;\n        if (block.timestamp >= vestingEnd) {\n            amount = IERC20(path).balanceOf(address(this));\n        } else {\n            amount = vestingAmount.mul(block.timestamp - lastUpdate).div(\n                vestingEnd - vestingBegin\n            );\n            lastUpdate = block.timestamp;\n        }\n        TransferHelper.safeTransfer(path, recipient, amount);\n    }\n}\n",
  "sourcePath": "/Users/zhangleping/github.com/0xa8c81519/path/contracts/TreasuryVester.sol",
  "compiler": {
    "name": "solc",
    "version": "0.8.0+commit.c7dfd78e.Emscripten.clang"
  },
  "schemaVersion": "3.4.1",
  "updatedAt": "2021-06-28T02:38:32.452Z",
  "devdoc": {
    "kind": "dev",
    "methods": {},
    "version": 1
  },
  "userdoc": {
    "kind": "user",
    "methods": {},
    "version": 1
  }
}